:1000000000000220A9080000D1080000D308000069
:10001000D5080000D7080000D90800000000000043
:10002000000000000000000000000000DB080000ED
:10003000DD08000000000000DF080000E10800000B
:10004000E3080000E3080000E3080000E308000004
:10005000E3080000E3080000E3080000E3080000F4
:10006000E3080000E3080000E3080000E3080000E4
:10007000E3080000E3080000E3080000E3080000D4
:10008000E3080000E3080000E3080000E3080000C4
:10009000E3080000E3080000E3080000E3080000B4
:1000A000E3080000E3080000E3080000E3080000A4
:1000B000E3080000E308000000000000000000006A
:1000C000E3080000E3080000E3080000E308000084
:1000D000E3080000E3080000E3080000E308000074
:1000E000E308000000000000000000000000000025
:1000F00000000000E308000000000000E30800002A
:1001000000000000000000000000000000000000EF
:1001100000000000000000000000000000000000DF
:1001200000000000000000000000000000000000CF
:1001300000000000000000000000000000000000BF
:1001400000000000000000000000000000000000AF
:10015000000000000000000000000000000000009F
:10016000000000000000000000000000000000008F
:10017000000000000000000000000000000000007F
:10018000000000000000000000000000000000006F
:10019000000000000000000000000000000000005F
:1001A000000000000000000000000000000000004F
:1001B000000000000000000000000000000000003F
:1001C000000000000000000000000000000000002F
:1001D000000000000000000000000000000000001F
:1001E000000000000000000000000000000000000F
:1001F00000000000000000000000000000000000FF
:100200000348044B834202D0034B03B118477047A5
:10021000C0090020C0090020000000000548064970
:100220000B1AD90F01EBA301491002D0034B03B104
:1002300018477047C0090020C009002000000000D6
:1002400010B5064C237843B9FFF7DAFF044B13B11E
:100250000448AFF300800123237010BDC0090020C3
:1002600000000000EC3D000008B5044B1BB1044940
:100270000448AFF30080BDE80840CFE7000000006D
:10028000C4090020EC3D0000A3F5803A704700BF90
:10029000154B002B08BF114B9D46FFF7F5FF0021C2
:1002A0008B460F461148124A121A00F093FB0C4B72
:1002B000002B00D098470B4B002B00D09847002014
:1002C000002104000D000B4800F00CFB00F03AFB8D
:1002D0002000290000F030F800F00AFB00000800C0
:1002E000000000000000000000000220C009002003
:1002F000180A00201109000080B586B000AFF86030
:10030000B9607A60BB687B6100233B610AE07B696E
:100310001B78184600F030F97B6901337B613B693B
:1003200001333B613B697A689A42F0D87B68184692
:100330001837BD4680BD000080B582B002AF4FF0D7
:10034000A0430022C3F838274FF0A0430022C3F88F
:100350005C274FF0A0430122C3F854274FF0A0437D
:100360000122C3F858274FF0A0430122C3F83C27CD
:100370004FF0A0430122C3F860274FF0A0430122B1
:10038000C3F84C274FF0A0430122C3F870274FF069
:10039000A0430122C3F82C274FF0A0430122C3F849
:1003A0007C275A4B0122C3F814274FF0A0430122A7
:1003B000C3F8782700F0AEF84323009340F2E273CD
:1003C00040F2E37241F28B01514800F0DFFA4FF046
:1003D000A043D3F8103503F48043002B02D1412011
:1003E00000F0CAF84FF0A043D3F8103503F400032F
:1003F000002B02D1422000F0BFF800F0DDF80346E8
:10040000002BE4D04FF0A043D3F804254FF0A043D5
:10041000D3F804354FF0A04143F40013C1F804357C
:100420009A4210D14FF0A043D3F804354FF0A043C7
:100430000022C3F80425354BD3F80435334B002292
:10044000C3F80425C3E74FF0A043D3F804354FF0B9
:10045000A04243F40013C2F804354FF0A043D3F890
:1004600004354FF0A04243F48003C2F804354FF046
:10047000A043D3F804354FF0A04243F40043C2F840
:1004800004354FF0A043D3F804354FF0A04243F0B9
:100490008073C2F804354FF0A043D3F804354FF011
:1004A000A04243F40023C2F804354FF0A043D3F830
:1004B00004354FF0A04223F08053C2F804354FF0CA
:1004C000A043D3F804354FF0A04223F40063C2F8F0
:1004D00004354FF0A043D3F804354FF0A04223F089
:1004E0000043C2F80435094BD3F80435074A23F01A
:1004F0002003C2F804354FF0A043D3F804354FF081
:10050000A04223F08043C2F8043560E700030050A6
:10051000503C000080B400AF4FF0A0430022C3F86D
:100520001827124B0122C3F82027114B2822C3F8A9
:1005300014250F4B0622C3F80C250D4B4FF000423B
:10054000C3F808250A4B4FF00042C3F81025084BAA
:10055000084AC3F82425064B0422C3F80025044B9F
:1005600001221A6000BFBD4680BC704700030050E6
:10057000002000400050270080B483B000AF034645
:10058000FB710C4B01229A600A4AFB79C2F81C35B8
:1005900000BF084BD3F81C31002BFAD0054B0022CA
:1005A000C3F81C21034B0122DA6000BF0C37BD46A3
:1005B00080BC70470020004080B483B000AF0A4B7D
:1005C000D3F80831012B09D1074BD3F81835FB714B
:1005D000054B0022C3F80821FB7900E000231846F0
:1005E0000C37BD4680BC70470020004080B483B00B
:1005F00000AF0E4B1B687B600D4B1B683B607B683C
:100600000D2B0CD13B68002B03D03B68012B02D093
:1006100003E0012304E0012302E0012300E00023C2
:1006200018460C37BD4680BC704700BF3001001033
:100630003401001080B483B000AF0E4B1B687B60A8
:100640000D4B1B683B607B680D2B0CD13B68002B6E
:1006500003D03B68012B02D003E0012304E0012317
:1006600002E0012300E0002318460C37BD4680BCA1
:10067000704700BF300100103401001080B483B017
:1006800000AF0E4B1B687B600D4B1B683B607B68AB
:100690000D2B0CD13B68002B03D03B68012B02D003
:1006A00003E0012304E0012302E0012300E0002332
:1006B00018460C37BD4680BC704700BF30010010A3
:1006C0003401001080B483B000AF0E4B1B687B6018
:1006D0000D4B1B683B607B680D2B0CD13B68002BDE
:1006E00003D03B68012B02D003E0002304E0012388
:1006F00002E0012300E0002318460C37BD4680BC11
:10070000704700BF300100103401001080B500AF09
:10071000FFF7D8FF0346002B07D04FF010234FF010
:100720008042D3F80832C2F8583500BF80BD0000BF
:1007300080B400AF034B044A1A6000BFBD4680BCC2
:10074000704700BF000000200090D00380B500AFCC
:10075000FFF74CFF0346002B0ED04FF080430022E2
:10076000C3F80C214FF080430022C3F810214FF052
:1007700080430022C3F83825FFF75CFF0346002BB7
:1007800076D04FF08053474AD3F80434C2F820356E
:100790004FF08053434AD3F80834C2F824354FF061
:1007A0008053404AD3F80C34C2F828354FF08053B8
:1007B0003C4AD3F81034C2F82C354FF08053394AF4
:1007C000D3F81434C2F830354FF08053354AD3F89B
:1007D0001834C2F834354FF08053324AD3F81C3401
:1007E000C2F840354FF080532E4AD3F82034C2F877
:1007F00044354FF080532B4AD3F82434C2F848359F
:100800004FF08053274AD3F82834C2F84C354FF0C4
:100810008053244AD3F82C34C2F850354FF080531B
:10082000204AD3F83034C2F854354FF080531D4A73
:10083000D3F83434C2F860354FF08053194AD3F8F6
:100840003834C2F864354FF08053164AD3F83C343C
:10085000C2F868354FF08053124AD3F84034C2F8DA
:100860006C354FF080530F4AD3F84434C2F87035DA
:10087000FFF704FF0346002B0DD04FF08043D3F861
:10088000003403F00103002B05D04FF080436FF0DC
:100890000102C3F80024FFF739FFFFF749FF00BF4B
:1008A00080BD00BF00C000400649074A074B9B1AA5
:1008B00003DD043BC858D050FBDCFFF747FFFFF7D0
:1008C000E7FC0000F83D000000000020C009002007
:1008D000FEE7FEE7FEE7FEE7FEE7FEE7FEE7FEE7F0
:1008E000FEE7FEE7002301461A46184600F0A8BFBF
:1008F00008B50021044600F0D7FF044B1868C36B0D
:1009000003B19847204603F095F900BF843C0000EE
:1009100038B50A4C0A4D641BA4100AD004F1804378
:10092000013B05EB8305013C55F804399847002C41
:10093000F9D1BDE8384003F085B900BFC0090020F7
:10094000BC09002070B50D4E0D4D761BB61006D0BB
:100950000024013455F8043B9847A642F9D1094ECA
:10096000094D761B03F068F9B61006D00024013457
:1009700055F8043B9847A642F9D170BDB409002050
:10098000B4090020BC090020B40900200FB400B550
:10099000074983B004AB086853F8042B81680193BE
:1009A00000F0ACF803B05DF804EB04B0704700BF92
:1009B000080000200EB400B582B003AB816853F884
:1009C000042B019300F09AF802B05DF804EB03B039
:1009D000704700BFF0B4860746D0541E002A3CD0B2
:1009E000CAB2034602E014F1FF3436D303F8012BF8
:1009F0009D07F8D1032C29D9CDB245EA05250F2C46
:100A000045EA054533D9A4F11006360903F120075C
:100A100007EB061703F1100242E9045542E90255BB
:100A20001032BA42F8D1721C14F00C0F03EB021210
:100A300004F00F0613D0331F23F0030304331344D1
:100A400042F8045B9342FBD106F003042CB1C9B217
:100A50001C4403F8011B9C42FBD1F0BC7047344698
:100A60001346002CF3D1F8E714460346C2E71A46B2
:100A70002646E0E72DE9F84F4B6E9C0493462DD5B2
:100A80009368126843B30E46074602F1080959E914
:100A9000025A5FEA9A0815D0043D002401E0A045FF
:100AA0000ED0324655F8041F384601F075F9431C44
:100AB00004F10104F3D10023CBE90133BDE8F88F41
:100AC000DBF808302AF0030AA3EB0A03CBF808305E
:100AD00009F10809002BDAD10020ECE701F0D8FA7F
:100AE0000023CBE90133BDE8F88F00BF936803B161
:100AF000C0E710B41846536010BC70472DE9F04FA2
:100B0000ABB01C468A469046CDE9043018B1836BE1
:100B1000002B00F00083BAF90C108AB290040AD4BA
:100B2000DAF8643041F4005223F40053AAF80C20A0
:100B3000CAF8643092B2110740F1CA80DAF8103076
:100B4000002B00F0C58002F01A020A2A00F0CE80C5
:100B500000230893CDE90E3302931AAB0D939B4605
:100B600098F80030002B00F0DF80252B00F01C856A
:100B7000454603E0252B00F0C68025466B786C1CAB
:100B8000002BF7D1B4EB080600F0CE80DDE90E3281
:100B900001333244072BCBF80080CBF80460CDE959
:100BA0000E3200F3B5800BF1080B029A6B783244D9
:100BB0000292002B00F0B8804FF0000300218DF866
:100BC0002F306378039108460F4604F101084FF077
:100BD000FF3908F10108A3F12002582A00F29E8291
:100BE000DFE812F0F9009C029C02F4009C029C02D7
:100BF0009C029C029C029C02E900E4009C02DF0033
:100C0000C6009C02C100B200B200B200B200B20045
:100C1000B200B200B200B2009C029C029C029C0294
:100C20009C029C029C029C029C029C0228029C0248
:100C30009C029C029C029C029C029C029C029C02C4
:100C40009C0267009C029C029C029C029C02590030
:100C50009C029C0213029C029C029C029C029C022D
:100C60009C029C029C029C029C02840157019C02F3
:100C70009C029C02520157019C029C0245019C026D
:100C80006E0269003F0240019C0220019C025B0051
:100C90009C029C02010147F01007BA06049B40F138
:100CA0002782073323F00703F3E802450493012367
:100CB000E5E147F0100717F0200300F02282049BC3
:100CC000073323F00703F3E8024504930023D6E13A
:100CD0005146059800F04CFD002840F0F484BAF825
:100CE0000C2002F01A020A2A7FF432AFBAF90E3051
:100CF000002BFFF62DAF234642465146059800F0E3
:100D000001FD02901CE0B4EB08063FF455AF3DE74F
:100D1000002A00F00F840DAA51460598FFF7AAFE9D
:100D200048B90DF1680B40E70F9B23B105980DAA58
:100D30005146FFF79FFEBAF80C305B0600F1C38402
:100D400002982BB0BDE8F08FA3F13002002418F810
:100D5000013B04EB840402EB4404A3F13002092AB2
:100D6000F5D9039437E747F0800798F8003030E76B
:100D7000444614F8013B2A2B00F0AA84A3F1300268
:100D8000092AA0464FF000093FF625AF18F8013BAD
:100D900009EB890902EB4909A3F13002092AF5D9C7
:100DA00019E798F8003047F0040712E798F8003088
:100DB00001212B200DE7049A98F8003052F8044BDB
:100DC0000394002CC0F21584049202E747F0010757
:100DD00098F80030FDE698F8003000287FF4F9AE6E
:100DE00001212020F5E6002940F05B84BE4A0892EC
:100DF000B806049A40F11281073222F00702F2E8A5
:100E000002450492FE0740F1998154EA050200F080
:100E1000958130228DF8313047F002078DF830206F
:100E200002232CE1049C54F8046B4FF000038DF86E
:100E30002F30002E00F00784B9F1FF3F00F0DE8371
:100E40004A460021304601F073FE002800F0198464
:100E5000831B01939DF82F300494009706934FF065
:100E60000009B0E147F0200798F80030B1E698F8A3
:100E700000306C2B03BF98F8013047F0200708F1D1
:100E8000010847F01007A4E647F0400798F8003043
:100E90009FE6002940F00184BA06049B40F1D3800C
:100EA000073323F007031946F1E80223049114469F
:100EB0001D46002A73F10003C0F249839DF82F30CC
:100EC0000693B9F1FF3F00F0148327F080030093ED
:100ED00054EA050340F00C83B9F1000F40F0CF83D2
:100EE0004FF00009CDF804901AAE6CE1049B012587
:100EF00053F8042B8DF840204FF000018DF82F108F
:100F00000493019510AE00974FF00009009BDDE9B6
:100F10000E2C13F002030693009B18BF0235501CE1
:100F200013F084030146079304D1039B5C1B002C40
:100F300000F325829DF82F400BF108007CB10CF1E5
:100F4000010C0DF12F0401220729CDE90E1CCBE97C
:100F5000004200F3F4810A46834601310830069BC3
:100F6000E3B10CF1020C0CAA02230729CDE90E1CF7
:100F7000CBE9002340F3FD81BCF1000F00F0FD82BE
:100F80000DAA51460598FFF775FD00287FF4D3AEF2
:100F9000DDE90E2C1CA8511C0DF1680B079B802B62
:100FA00000F01C81019BA9EB0307002F00F3738164
:100FB000019A0E911346634407290F93CBE900620F
:100FC0000CDD002B00F024820DAA51460598FFF796
:100FD00051FD00287FF4AFAE0F9B1AA8009A52076C
:100FE00004D5039A541B002C00F31B82DDE9022177
:100FF000A942ACBF521852190292002B40F09181C5
:1010000000230E930DF1680BAAE5002940F05283EE
:10101000364A0892B806049A3FF5EEAE52F8044BF1
:101020000492F90600F19C827A0640F19982A4B2FA
:101030000025E7E6002940F02D8347F01007BA06A7
:10104000049B3FF52DAF53F8044B0493FE0600F1CB
:1010500076827D0640F1738224B2E51722462B4644
:1010600027E7049B53F8044B049347F630021E4BCA
:101070000893ADF8302047F00207002502234FF017
:1010800000028DF82F2000220692B9F1FF3F58D0C0
:1010900027F08002009254EA050251D1B9F1000F05
:1010A00040F00A82002B7FF41BAF17F0010301937D
:1010B00000F07D8230238DF867300DF1670682E005
:1010C000002940F0F282049ABC0652F8043B0492D4
:1010D00000F18282F80600F1AA82790640F1A78227
:1010E000029A1A803CE500BFBC3C0000A83C00000E
:1010F00053F8044B0493FE0640F168820025012357
:10110000BDE7049A52F8044B049217F0100200F065
:1011100056820025B3E700F0CBFDFCE4002940F047
:10112000AB82002B3FF400AE01258DF840304FF02C
:1011300000038DF82F30019510AEE4E602239EE700
:10114000009F012B00F0D581022B00F0BC811AA971
:1011500000E03146E20842EA4572E80804F007037D
:1011600005461446303354EA050201F8013C01F10A
:10117000FF36EED1F80722D5302B20D030230239AC
:1011800006F8013C1AAB5B1A009701930E461AE071
:101190001AAE01E004460D460A22002320462946E5
:1011A00002F098FB303206F8012D00230A22204677
:1011B000294602F08FFB002D08BF0A2CEAD21AAB99
:1011C0009B1B00970193019B4B45B8BF4B461D46A7
:1011D000069B002B3FF49AAE013597E6039B5F1BFD
:1011E000002F7FF7DFAE102FBF4C40F369826346BC
:1011F000DC46AB462546059C06E0901C0CF1080C2D
:101200000A46103F102F1EDD511C103310200729F5
:101210000F93CCF80050CCF804000E91EDDD0DAA30
:1012200051462046002B00F08580FFF723FC002864
:101230007FF481ADDDE90E23103F102F02F1010094
:101240000DF1680CE0DC2C465D46E3469C460BF154
:101250000803BC440728CDF83CC0CBE900470E90FA
:1012600040F3A781BCF1000F00F0F7810DAA5146B1
:101270000598FFF7FFFB00287FF45DAD019BDDE9DA
:101280000E2CA9EB0307002F02F101011CA80DF1A0
:10129000680B7FF78DAE102F934C40F3DC816346D3
:1012A0004FF01009DC46AB462546059C06E0911C34
:1012B0000CF1080C0246103F102F19DD501C1033A2
:1012C00007280F93CCE900590E90F0DD0DAA514686
:1012D00020460BB3FFF7CEFB00287FF42CADDDE9F1
:1012E0000E23103F102F02F101010DF1680CE5DC17
:1012F0002C465D46E3469C460BF10803BC44072997
:10130000CDF83CC0CBE900470E9100F300810131DC
:1013100003F108009B464BE601211A460DF1680CCB
:10132000C9E70DAA51460598FFF7A4FB00283FF432
:1013300067AE00E501201A460DF1680C61E7BCF1CB
:10134000000F00F00F810DAA51460598FFF792FBA0
:1013500000287FF4F0ACDDE90E2C1CA8511C0DF127
:10136000680BFCE502230CAACDE91A239C461CA8B5
:10137000012183460A46511C0BF108000EE6102C91
:101380005A4F40F39581099659461023C346664645
:10139000A846059D07E002F1020E08310246103C06
:1013A000102C1ADD501C103607280F96C1E9007367
:1013B0000E90F0DD0DAA5146284626B3FFF75AFBE2
:1013C00000287FF4B8ACDDE90E26103C102C02F1A9
:1013D000010E1AA94FF01003E4DCB446099E4546FD
:1013E000D8468B46A444BEF1070FCDF83CC0CBE9EC
:1013F0000074CDF838E000F3C6800BF1080B0EF155
:101400000101724696E532464FF0010E1AA9C6E771
:10141000009A0E93510747D5039A541B002C43DDC5
:101420001AA8102C0E99314F40F347811026DDF891
:10143000149006E001F1020C08301146103C102C0B
:1014400018DD4A1C1033072A0F93C0E900760E926C
:10145000F0DD0DAA514648460BB3FFF70BFB002801
:101460007FF469ACDDE90E13103C102C01F1010C86
:101470001AA8E6DC2344BCF1070F0F93C0E90074FF
:10148000CDF838C07FF7B2AD73B10DAA51460598BB
:10149000FFF7F0FA00287FF44EAC0F9BA6E54FF063
:1014A000010C19461AA8C9E7DDE90232AA42ACBF0D
:1014B0009B185B190293A3E5012B00F0E080022B3F
:1014C000009F7FF444AE08981AAE230904F00F0180
:1014D00043EA05732A091C461546435C06F8013D9C
:1014E00054EA0503F1D16AE6983C0000883C00000C
:1014F000009F002D08BF0A2CBFF44AAE30340123F0
:101500008DF86740009701930DF167065BE6BCF12B
:10151000000F00F090800DAA51460598FFF7AAFA37
:1015200000287FF408ACDDE90E1C1CA801310DF188
:10153000680B3DE50E920DF1680BFFF736BBE51722
:1015400022462B46002A73F10003BFF6B7AC2D23C9
:1015500064428DF82F30069365EB4505012394E531
:1015600000254FE4069B002B3DD002230CA9CDE9BA
:101570001A139C460DF1700BFDE61CA80121624672
:101580000DF1680B0AE5BCF1000F43D00DAA5146DE
:101590000598FFF76FFA00287FF4CDABDDE90E2C3C
:1015A0000DF1680B511CC5E44446FFF705BB1AAEAC
:1015B00009E6411C02469B4603F10800F2E417F0DD
:1015C00040031CBF1346A4B2002558E57D0648BF62
:1015D000A4B20025012352E5029A1046D117C3E9AF
:1015E0000001FFF7BDBA11461CA862460DF1680B59
:1015F000D4E46442CDE90342FFF7D5BB30460494FE
:10160000009701F07DFF9DF82F30019006934FF079
:101610000009D8E59DF82F202ABB069B002B7FF4FC
:10162000A1AE62461CA801210DF1680BBAE4029A32
:101630001A60FFF795BA019B1B9301220F931A962C
:101640000E921CA8CAE44D46062D28BF062501951A
:101650000494254E57E4034650E61CA80121624637
:101660000DF1680B9EE401220DF12F001A909446B3
:101670001B9211461CA86EE48DF82F0051E5009FC7
:101680003CE79DF82F30CDF8049006930494009722
:10169000814698E58DF82F00CFE48DF82F00FFF7F5
:1016A000FBBB8DF82F00FFF7A1BB8DF82F000AE5DB
:1016B000864697E68DF82F00AAE401F1010CD9E6E1
:1016C00003460846C5E54FF0FF330293FFF738BBEA
:1016D000049D98F8013055F8042B0495A04642EA81
:1016E000E279FFF776BA00BFD03C000010B4044C9A
:1016F00013460A460146206810BCFFF7FFB900BF39
:1017000008000020F0B50C46ADF26C4D8989666E7C
:10171000E589199621F00201666AADF80E500025A0
:10172000E769ADF80C10099606951AAE4FF480657E
:101730006946009604960295059507970646FFF7B9
:10174000DDF9051E07DB3046694600F0ABF90028DD
:1017500018BF4FF0FF35BDF80C305B0603D5A389E9
:1017600043F04003A38128460DF26C4DF0BD00BF4D
:1017700038B5324B1B6805460C460BB19A6B12B359
:10178000B4F90C2093B2180725D5206900282DD074
:1017900013F0010207D0636900225B42A361A260DB
:1017A00038B1002038BD990758BF6269A26000288F
:1017B000F7D1B4F90C301A06F4D543F04003A381F5
:1017C0004FF0FF3038BD184600F072FAB4F90C2023
:1017D00093B21807D9D4D90628D5580712D420694E
:1017E00042F00803A3819BB20028D1D103F42072F8
:1017F000B2F5007FCCD02846214600F079FEA389BF
:101800002069C5E7216B51B104F14003994204D02E
:10181000284600F043FBB4F90C2000232363002387
:101820002069636022F024022060D9E742F0400280
:1018300009232B604FF0FF30A28138BD0800002043
:10184000F0B4184C2568D5F8484114B365681F2DCD
:1018500024DC38B9AB1C0135656044F82310002046
:10186000F0BC704704EB85060127C6F8882007FA0C
:1018700005F2D4F88871022847EA0207C4F8887193
:10188000C6F80831E6D1D4F88C311A43C4F88C215B
:10189000E0E705F5A674C5F84841D7E74FF0FF30FB
:1018A000DEE700BF843C00002DE9F04F244B83B0FD
:1018B000D3F800B001908A464FF00008DBF8486189
:1018C00096B17468651E0FD4013406EB84040127B9
:1018D000BAF1000F0BD0D4F80031534507D0013DC9
:1018E0006B1CA4F10404F3D103B0BDE8F08F73685E
:1018F0002268013BAB420CBF7560C4F80080002A2F
:10190000EDD0D6F88811D6F8049007FA05FC1CEA49
:10191000010F08D1904772684A45CFD1DBF84831B2
:10192000B342DCD0CAE7D6F88C31D4F880101CEA78
:10193000030F02D101989047EDE708469047EAE788
:10194000843C0000024B13B10248FEF7CBBF704746
:101950000000000011090000B1F90C309AB22DE925
:10196000F0410C461107804648D4626843F4006396
:10197000002AA3815DDDA56A002D57D000229BB20D
:10198000D8F80060E169C8F8002013F4805254D1FF
:1019900001234046A847431C66D0A389A56AE16994
:1019A0005F0705D56268236B801A0BB1E36BC01A21
:1019B000024600234046A847451C48D1D8F80020DD
:1019C000B4F90C30002A5CD01D2A01D0162A64D14B
:1019D00022690021C4E9002123F40063A381216B63
:1019E000C8F8006011B304F14003994202D04046A8
:1019F00000F054FA00202063BDE8F0812669AEB102
:101A00002568266091070CBF63690023AD1BA360A6
:101A10000AE02B463246676AE1694046B84700282B
:101A2000A5EB000506440ADD002DF2DC0020BDE830
:101A3000F081E26B002A9EDCF8E7206DB0E7A38915
:101A400043F04003A3814FF0FF30BDE8F081B4F9CB
:101A50000C302269226023F4006300226260DA0401
:101A6000A381BCD52065BAE7D8F80030002B94D00C
:101A70001D2B0FD0162B0DD0A38943F04003A3815B
:101A8000D5E723F400632169A381DB04C4E90012D4
:101A9000A5D5E7E7C8F80060C8E743F04003A38195
:101AA000C5E700BF10B5044682B008B1836B23B10F
:101AB000B1F90C0048B902B010BD019100F0F8F87E
:101AC0000199B1F90C000028F5D0204602B0BDE81C
:101AD0001040FFF741BF00BF20B1054B0146186819
:101AE000FFF7E0BF034B0449186800F07BBC00BF60
:101AF00008000020843C0000A51A00000020704768
:101B0000014900F06FBC00BF993700002DE9F84F84
:101B100045682C4BC3630024074600F53B72042341
:101B20000321C0E9B912C0F8E0422146EB6005F19B
:101B30005C006C66C5E90044AC60C5E90444AC6176
:101B40000822FEF747FFDFF888B0BE68DFF884A000
:101B5000DFF88490DFF884801B4BC5F82C80C5E942
:101B6000075BC5E909A92146F360082206F15C007C
:101B70007466C6E90044B460C6E90444B461FEF783
:101B800029FFFD68114BC6F82C80C6E9076BC6E932
:101B900009A92146EB606C66C5E90044AC60C5E963
:101BA0000444AC6105F15C000822FEF713FF012339
:101BB000C5E9075BC5E909A9C5F82C80BB63BDE889
:101BC000F88F00BF011B0000090001001200020095
:101BD0006D31000095310000D5310000F531000075
:101BE0000020704770B54A1E682505FB02F50E46B9
:101BF00005F1740100F0C6FC044640B100210C3030
:101C0000666005F168022160A060FEF7E3FE2046F1
:101C100070BD00BF1F4B70B51D68AB6B06464BB364
:101C200005F53875D5E90134013B05D51EE0013BCA
:101C30005A1C04F1680419D0B4F90C20002AF6D11A
:101C40000025154B6566C4E90055A560C4E9045537
:101C5000A5612946E360082204F15C00FEF7BAFEA4
:101C6000C4E90C55C4E91155204670BD2C682CB14F
:101C70002546D7E72846FFF749FFD1E7042130463C
:101C8000FFF7B0FF044628600028F1D10C23336031
:101C9000EAE700BF843C00000100FFFF024B03495C
:101CA000186800F09FBB00BF843C0000993700001B
:101CB000836B03B1704729E7704700BF704700BFCF
:101CC000704700BF704700BF024B0349186800F01F
:101CD00063BB00BF08000020FD1A0000024B03494F
:101CE000186800F059BB00BF08000020E11B00008D
:101CF0002DE9F04782B080468946144600F0BCFBCF
:101D0000012803D109F1FF33FE2B36D94A4604F1ED
:101D10005C0301A9404601F0C1FC421C064632D0DA
:101D200030B39DF804C000250DF1040A09E02368D2
:101D30005A1C226083F800C00135B54218D215F84C
:101D40000AC0A368013B002BA360F0DAA769BB427D
:101D500061462246404602DBBCF10A0FE7D101F0A2
:101D60003DFC431CE8D10646304602B0BDE8F08792
:101D70004E46304602B0BDE8F0875FFA89FC064661
:101D80008DF804C0CFE7A389304643F04003A38118
:101D900002B0BDE8F08700BFB2F90C3013F4005F69
:101DA0000AD110B4546E43F4005344F40054546602
:101DB000938110BCFFF79CBFFFF79ABF0E4B70B525
:101DC0001D6806460C460DB1AB6B8BB1B4F90C30F7
:101DD0009A0406D4626E43F4005342F40052A38185
:101DE0006266224631462846BDE87040FFF780BF54
:101DF0002846FFF75DFFE9E708000020F8B5244F0B
:101E00000C46064600F0E6FFBB685D68C4F57E61DF
:101E10000F3125F00305294421F47F6121F00F01E2
:101E2000A1F58054B4F5805F07DB0021304601F056
:101E30008BF9BB682B44984204D0304600F0CCFFAD
:101E40000020F8BD6142304601F07EF901300DD02E
:101E5000104BBA6819682D1B45F001053046091B67
:101E60005560196000F0B8FF0120F8BD0021304630
:101E700001F06AF9BA68831A0F2BDEDD064C0549BA
:101E8000246843F00103001B53600860D5E700BFDE
:101E9000A4050020E0090020AC09002000295ED044
:101EA000F8B50F46064600F095FF57F804CC754D7F
:101EB0002CF00103A7F10800C218A96854689142E8
:101EC00024F0030400F084801CF0010F546002EB46
:101ED000040133D157F808EC4968A0EB0E0005F176
:101EE000080C87686745734401F0010160D0D0F8A1
:101EF0000CE0C7F80CE0CEF80870002900F08D80E7
:101F000043F0010141601360B3F5007F30D2DB087C
:101F1000591C6C689A1001239340234305EBC102BE
:101F200055F831406B60083AC0E9024245F831008B
:101F3000E0603046BDE8F84000F04EBF4968C90790
:101F40000ED4234405F1080C9168614543F0010467
:101F50006BD0D268CA6091604460C350D4E77047C8
:101F600043F00101B3F5007F47F8041C1360CED3A2
:101F70005A0A042A46D89A0902F13907FF0002F1E9
:101F80003801EC19EA59083C944255D0516821F0C7
:101F90000301994202D992689442F7D1D468C0E90A
:101FA0000224A060D0603046BDE8F84000F014BFC5
:101FB000002962D1D2E90221234443F00104D16017
:101FC0008A604460C3503046BDE8F84000F004BF6A
:101FD0001CF0010F234407D157F8082C801A134432
:101FE000D0E90212CA609160274A126843F00101E9
:101FF0009A424160A8609CD8244B30461968FFF78C
:10200000FDFE96E7142A0AD9542A1DD81A0B02F1AC
:102010006F07FF0002F16E01B3E7234494E702F17A
:102020005C07FF0002F15B01ABE7C5E90400C0E912
:1020300002CC4460C3507CE76B688910012707FA23
:1020400001F119436960AAE7B2F5AA7F06D8DA0B55
:1020500002F17807FF0002F1770192E740F2545154
:102060008A4206D89A0C02F17D07FF0002F17C013A
:1020700087E74FF47E777E2183E743F001014160DB
:10208000136056E7A4050020B0090020DC090020F9
:102090009368002B00F002812DE9F04FB1F90C306C
:1020A0009BB20C46190783B08246904635D522690B
:1020B0009AB313F00202D8F800603DD00027D4F89C
:1020C00024B0D4F81CC0DFF8CC923D464D452B46D9
:1020D0003A4628BF4B4661465046D5B1D8470028FE
:1020E00040F3D280D8F808301B1A07442D1AC8F8DC
:1020F0000830002B00F0B780D4F81CC0D4F824B00E
:102100004D452B463A4628BF4B4661465046002D6A
:10211000E4D1D6E900750836D8E721465046FFF7E6
:1021200027FB002840F03081B4F90C30D8F800606B
:102130009BB213F00202C1D113F0010940F0B0804C
:10214000A76820684D46002D54D09A0540F1BC8008
:10215000AF42BB4600F2E78013F4906F2FD0D4E972
:10216000041707EB4707A0EB010B07EBD777681CB9
:102170007F105844B8423A4684BF07463A465B054A
:1021800040F1E9801146504600F0FCF9002800F0CB
:10219000F5805A462169019000F01AFDA289019B41
:1021A00022F4906242F08002A281A7EB0B0203EBC3
:1021B0000B00676123612060A2602F46AB465A4640
:1021C000494600F09FFDA2682368D21B5B442F465E
:1021D000A26023600025D8F80830DB1BB944C8F89A
:1021E0000830002B3FD0B4F90C30A76820689BB2B0
:1021F000002DAAD1D6E900950836A4E70BF1080313
:1022000053E902679B460833002FF9D03A460A216A
:10221000304600F08DFC002853D00130A0EB0609B9
:102220004B46D4E904122068BB4228BF3B46884293
:1022300003D9A5681544AB4219DC9A427DDC1346EC
:10224000656AE16932465046A847051E1CDDB9EBB8
:1022500005096BD00120D8F808305B1B2E447F1B8A
:10226000C8F8083013BB002003B0BDE8F08F31463A
:102270002A4600F047FD23682B4423602146504640
:10228000FFF710FC0028E2D0B4F90C3043F0400313
:102290004FF0FF30A38103B0BDE8F08F00207047FE
:1022A00033469146104617464E469B46002FA5D012
:1022B0000028B5D13A460A21304600F039FC002802
:1022C000ABD17B1C9946ACE72369834215D3616986
:1022D000A94212D82E4B676A9D4294BF2B466FF0DD
:1022E00000434A4693FBF1F3504601FB03F3E169D7
:1022F000B847071EC8DDED1B6DE7AF4228BF2F466C
:102300003A46494600F0FEFCA3682268DB1B3A44CB
:10231000A3602260002BEED121465046FFF7C2FB9E
:102320000028E8D0B0E72F46AB4648E721465046A4
:10233000FFF7B8FB00288ED0A6E71A463146019376
:1023400000F0E0FC019BA1682268C91A1A44A16050
:1023500022601D467BE7504600F040FD0346002802
:102360007FF423AF21695046FFF798FDB4F90C3094
:102370000C2223F08003CAF8002087E70C23CAF858
:102380000030B4F90C3081E74FF0FF306CE700BF4C
:10239000FEFFFF7F00FCFF7F2DE9F04110F538774D
:1023A0001BD088460026D7E90154013D0FD4A389EC
:1023B000012B05F1FF3506D9B4F90E300133204663
:1023C00001D0C04706436B1C04F16804EFD13F689D
:1023D000002FE8D13046BDE8F0813E463046BDE8EA
:1023E000F08100BF2DE9F84310F538771FD08846FB
:1023F00006464FF00009D7E90154013D11D4A389E5
:10240000012B05F1FF3508D9B4F90E30013321460F
:10241000304602D0C04749EA00096B1C04F1680449
:10242000EDD13F68002FE6D14846BDE8F883B946B4
:102430004846BDE8F88300BF42B110B50B491046CD
:10244000144600F0E1FE18B9094810BD084870476D
:102450000749204600F0D8FE0028F5D0204605495F
:1024600000F0D2FE0028EFD0002010BDDC3C0000C0
:10247000D83C0000B83C0000014B93F8280170479D
:1024800038040020024B0A4601461868FFF7D4BF03
:102490000800002070B50C46B1F90E10002996B066
:1024A00015461E4614DB6A4601F0C2F900280FDB10
:1024B000019A02F47042A2F50052B2FA82F2520975
:1024C0004FF480634FF4006032602B6016B070BD33
:1024D000A289002312F08000336004D04022184605
:1024E0002A6016B070BD4FF480632B6016B070BDCB
:1024F0008A8992070B4606D501F1430201211A6031
:10250000C3E90421704770B582B001AB6A460C463E
:102510000646FFF7BFFF00990546304600F032F847
:10252000B4F90C3070B11649F163019A009920603A
:1025300043F08003A381C4E904018AB92B43A3813A
:1025400002B070BD9A05FBD423F0030304F14302EB
:1025500043F002030121A3812260C4E90421EFE7D3
:102560003046B4F90E1001F077F910B9B4F90C3017
:10257000E4E7A38923F0030343F001031BB2DDE783
:10258000011B00002DE9F04F01F10B05162D83B062
:10259000064623D8102900F2B98000F01BFC102554
:1025A00018230220CD4F3B44A3F108025C689442FB
:1025B00000F0B980636823F003032344D4E9025197
:1025C0005A68E96042F0010230468D605A6000F0BE
:1025D00003FC0834204603B0BDE8F08F35F0070552
:1025E00000F19480A94200F2918000F0F3FBB5F570
:1025F000FC7FC0F09D816B0A00F08F80042B00F2FD
:102600007381AB0903F1390003F1380CC300B34FF8
:102610003B44A3F108015C68A14206D10CE0002A0A
:1026200080F22B81E468A14206D0636823F00303A3
:102630005A1B0F2AF3DD60463C69DFF8A4C26445EB
:102640007CD0636823F003035A1B0F2A00F37E81BA
:10265000002AC7E904CC80F26F81B3F5007F80F0D7
:102660001A81DB08591C7A6857F83180C4F8088051
:102670004FF0010E9B100EFA03F307EBC10E13434C
:10268000AEF10802E2607B6047F83140C8F80C40C8
:102690008210012494409C4256D81C4206D120F05E
:1026A000030064001C4200F10400FAD007EBC009EB
:1026B000CE468046DEF80C309E4507D120E1002A48
:1026C00080F22781DB689E4500F01A81596821F06D
:1026D00003014A1B0F2AF2DDD3E9028E5C1945F093
:1026E00001055D6042F00105C8F80CE03046CEF807
:1026F0000880C7E90444C4E902CC65605A500093DD
:1027000000F06AFB009B03F1080402E00C23336035
:102710000024204603B0BDE8F08F4FF40073402042
:102720004FF03F0C73E7DC68A34208BF02307FF430
:1027300041AF3C69DFF8A8C1644582D17B68821053
:10274000012494409C42A8D9BC68636823F0030824
:10275000A84503D3A8EB05030F2B7EDCDFF884919B
:10276000D7F80824D9F80030013204EB080A2B44CA
:1027700000F0378103F580530F3323F47F6B2BF088
:102780000F0B5946304600F0DFFC411C024600F0BA
:10279000F780824500F2F280D9F804105944C9F854
:1027A00004100B4600F05381D7F8081401311BBF09
:1027B000A2EB0A0A5344C7F80824C9F8043012F0FF
:1027C000070300F01A81C3F108010A44C3F58051E0
:1027D00093440831A1EB0B01C1F30B0A514630467B
:1027E0000193009200F0B0FC421CDDE9002300F0F0
:1027F0005381831A03EB0A0BD9F80410BA604BF02B
:1028000001035144BC425360C9F8041000F02B810D
:10281000B8F10F0F40F229816368A8F10C0020F095
:10282000070003F0010304EB000C03434FF0050E17
:102830000F286360CCE901EE00F23581536814463D
:10284000D9F82C208A42D9F8302038BFC9F82C108A
:102850008A4238BFC9F8301094E0621943F001038E
:1028600045F0010565603046BA60536000F0B4FA87
:102870000834204603B0BDE8F08F2344E1685A686D
:10288000A56842F00102E96030468D605A6000F0B0
:10289000A3FA08343DE75A0A042A69D9142A00F237
:1028A000BE8002F15C01C9005B3207EB010E795872
:1028B000AEF1080E8E4500F097804A6822F00302C0
:1028C0009A4202D989688E45F7D1D1F80CE07B682D
:1028D000C4E9021ECEF80840CC60D9E6A405002069
:1028E000AC050020DC090020142B59D9542B00F230
:1028F0009E802B0B03F16F0003F16E0CC30086E684
:1029000008F1010818F0030F0EF1080E7FF4D2AEA3
:1029100051E019441C464A68DB6854F8085F42F0ED
:1029200001024A603046EB609D6000F055FAF0E627
:10293000E80805F1080335E6234430465A6842F0BA
:1029400001025A60083400F047FAE2E6611945F0E6
:10295000010E42F00105C4F804E03046C7E9041155
:10296000C1E902CC4D60E25000F036FA0834D0E6FE
:102970009A0902F13901C900383296E7BC4260D0A9
:10298000BC68636823F0030BAB45ABEB050302D3D4
:102990000F2B3FF762AF304600F01EFA0024B8E676
:1029A00003F15C0003F15B0CC30030E659F8083911
:1029B0004B4540F0968010F0030F00F1FF30F5D149
:1029C0007B6823EA04037B6064009C423FF6BCAE54
:1029D0001CB9B9E6640008F104081C42FAD040466C
:1029E00064E603F1100BCCE67B6892104FF001080F
:1029F00008FA02F213437B606AE702EB0B014942DB
:102A0000C1F30B0A514630460193009200F09CFB43
:102A1000431CDDE900237FF4ECAE9A46ECE6542A31
:102A200026D81A0B02F16F01C9006E323DE7B3F5EB
:102A3000AA7F26D8EB0B03F1780003F1770CC300D3
:102A4000E5E5D9F804305B44C9F80430ACE6CAF3D4
:102A50000B0000287FF4A8AE08EB0B03BC6843F022
:102A600001036360ECE61446EAE60123536092E753
:102A7000B2F5AA7F21D8DA0B02F17801C9007732CA
:102A800013E740F25452934221D8AB0C03F17D007E
:102A900003F17C0CC300BAE5083B9B44ABEB020B93
:102AA0004FF0000AA8E604F108013046FFF7F6F9F6
:102AB000BC68D9F804106368C2E640F254518A42F7
:102AC0000BD89A0C02F17D01C9007C32EDE64FF47F
:102AD0007E737F204FF07E0C99E54FF47E717E224D
:102AE000E3E67B6870E700BF10B4034CD4F8E44021
:102AF000A44610BC604700BF3804002082B049B132
:102B00005AB16BB113780B601278101C18BF0120FA
:102B100002B0704701A9002AF3D1104602B07047F5
:102B20006FF00100F4E700BF0000000000000000AB
:102B300001F0FF01102A2BDB10F0070F08D010F86E
:102B4000013B013A8B422DD010F0070F42B3F6D172
:102B5000F0B441EA012141EA014122F007047FF08B
:102B600000070023F0E80256083C85EA010586EAE2
:102B7000010685FA47F5A3FA87F586FA47F6A5FA1E
:102B800087F68EB9EED1F0BC01F0FF0102F007022A
:102B900032B110F8013B013A83EA010313B1F8D1D5
:102BA0000020704701387047002D06BF35460338B6
:102BB000073815F0010F07D1013015F4807F02BFEF
:102BC000013015F4C03F0130F0BC0138704700BF40
:102BD000844641EA000313F003036DD1403A41D328
:102BE00051F8043B40F8043B51F8043B40F8043BE7
:102BF00051F8043B40F8043B51F8043B40F8043BD7
:102C000051F8043B40F8043B51F8043B40F8043BC6
:102C100051F8043B40F8043B51F8043B40F8043BB6
:102C200051F8043B40F8043B51F8043B40F8043BA6
:102C300051F8043B40F8043B51F8043B40F8043B96
:102C400051F8043B40F8043B51F8043B40F8043B86
:102C500051F8043B40F8043B51F8043B40F8043B76
:102C6000403ABDD2303211D351F8043B40F8043B16
:102C700051F8043B40F8043B51F8043B40F8043B56
:102C800051F8043B40F8043B103AEDD20C3205D326
:102C900051F8043B40F8043B043AF9D2043208D01E
:102CA000D2071CBF11F8013B00F8013B01D30B8890
:102CB00003806046704700BF082A13D38B078DD06E
:102CC00010F003038AD0C3F10403D21ADB071CBF40
:102CD00011F8013B00F8013B80D331F8023B20F8AA
:102CE000023B7BE7043AD9D3013A11F8013B00F8E3
:102CF000013BF9D20B7803704B7843708B7883706B
:102D0000604670478842F0B40DD98B1883420AD9C7
:102D1000841832B1224613F8014D02F8014D994250
:102D2000F9D1F0BC70470F2A0ED80346541E002A72
:102D3000F7D001340C44013B11F8012B03F8012FAB
:102D4000A142F9D1F0BC704740EA01039B073BD197
:102D5000A2F110073F0901F1200606EB071601F169
:102D6000100300F1100453F8105C44F8105C53F8A1
:102D70000C5C44F80C5C53F8085C44F8085C53F8AD
:102D8000045C44F8045C1033B34204F11004EAD14B
:102D90007B1C1B0112F00C0F194402F00F050344B9
:102DA00015D0043DAD0803EB850C1C1F0E4656F8EC
:102DB000047B44F8047F6445F9D10135AD002B4410
:102DC000294402F00302B1E7541E0346B1E72A4644
:102DD000ACE700BF704700BF704700BF2DE9F84F58
:102DE0001746002900F0BB8007F10B0481460D4611
:102DF000FFF7F0FF162C5ED810242246A7425FD8BA
:102E000055F804EC2EF00306A5F10808964208EBED
:102E1000060A80F28180CB4BDAF8040099685145AC
:102E200000F0B58020F0010353445B68DB0700F13C
:102E30008A8020F003003318934280F212811EF042
:102E4000010F0FD155F8083CA8EB030BDBF8041079
:102E500021F0030108448319934280F2168173180C
:102E6000934234DA39464846FFF78CFB0746E0B117
:102E700055F8043C23F001034344A0F108029342B7
:102E800000F0F780321F242A00F2FB80132A296801
:102E900000F2C98003462A46196051685960926859
:102EA0009A6029464846FEF7F9FF4846FFF794FF27
:102EB0003846BDE8F88F24F00704002C22469DDA3E
:102EC0000C23C9F8003000273846BDE8F88F5F466C
:102ED000DBF80C1057F8080F321F242AC1600BEBE7
:102EE000030A886000F2D980132A296840F2D3804F
:102EF000CBF808106968CBF80C101B2AA96800F2FF
:102F0000E0800BF110020835116069685160A96812
:102F100091601E46D8463D46D8F80430321B0F2A31
:102F200003F0010320D83343C8F80430DAF8043042
:102F300043F00103CAF8043048462F46FFF74CFF20
:102F40003846BDE8F88F1EF0010F8BD155F8083CCC
:102F5000A8EB030BDBF8041021F003017FE7114617
:102F6000BDE8F84FFFF70EBB08EB0401234342F026
:102F70000102C8F804304A60DAF8043043F0010373
:102F80000831CAF804304846FEF788FFD4E720F03D
:102F90000300311804F1100C61454FDA1EF0010FE7
:102FA0007FF460AF55F8081CA8EB010BDBF80410A8
:102FB00021F00301084400EB060AD4453FF74FAF68
:102FC0005F46DBF80C1057F8080F321F242AC16047
:102FD000886000F29980132A296840F29380CBF828
:102FE00008106968CBF80C101B2AA96800F29280BF
:102FF0000BF110020835116069685160A968916091
:103000000BEB0401AAEB040242F0010299604A6052
:10301000DBF8043003F001031C434846CBF80440BE
:10302000FFF7DAFE50E701606B6843601B2A3CD86B
:1030300005F1080200F10803A9682DE708EB040078
:103040000A1B42F001029860426055F8043C03F00C
:1030500001031C43484645F8044CFFF7BDFE2F46CC
:1030600032E7DAE902121E46CA6008EB030A9160F1
:1030700052E750F8043C23F003031E4408EB060A11
:103080004AE72946FFF73EFE0BE7DAE902125F4600
:10309000CA6091601CE73A4636E7294638461E4624
:1030A000D846FFF72FFE3D4636E7AB688360EB68F6
:1030B000C360242A11D005F1100200F11003296920
:1030C000EAE6CBF81010E968CBF81410242A0ED0E9
:1030D00029690BF11802103516E72B6903616B693A
:1030E0004361A96905F1180200F11803D4E62A69C1
:1030F000CBF818206A69CBF81C20A9690BF12002D3
:10310000183501E73A4676E729463846FFF7FAFDD3
:103110000C4B75E7CBF81010E968CBF81410242A93
:1031200004D029690BF11802103564E72A69CBF83D
:1031300018206A69CBF81C20A9690BF12002183508
:1031400059E700BFA405002038B5074C0023054609
:103150000846236000F060FD431C00D038BD2368A2
:10316000002BFBD02B6038BD140A002010B50C4694
:10317000B1F90E1000F098FB002803DB236D034427
:10318000236510BDA38923F48053A38110BD00BF24
:10319000002070472DE9F0411646B1F90C201F467A
:1031A000D3050C460546B1F90E1009D422F480521D
:1031B000A2813B4632462846BDE8F04100F0C4BA41
:1031C0000022022300F05AFBB4F90C20B4F90E10CF
:1031D000ECE700BF10B50C46B1F90E1000F04EFB45
:1031E000A389421C0EBF23F4805343F4805320650F
:1031F000A38110BDB1F90E1000F0BCBA00000000B0
:10320000A2EB0300704700BF02780B78012A28BFA9
:103210009A42F5D16DE9044540EA0104CDE902671F
:103220006FF0000C4FEA447212B380EA010414F00C
:10323000070F6AD100F0070420F0070004F003052F
:1032400021F007014FEAC505F0E8042314F0040F4C
:10325000F1E804670CFA05F462EA040266EA04067F
:103260000AD063EA0403624667EA0407664603E09D
:10327000F0E80423F1E8046782FA4CF582EA0604D8
:10328000A4FA8CF46CBB83FA4CF583EA0705A5FA23
:103290008CF595B950E9022351E9026782FA4CF5A1
:1032A00082EA0604A4FA8CF483FA4CF583EA070553
:1032B000A5FA8CF52543DBD09CB92DBAB5FA85F477
:1032C00024F0070427FA04F1DDE9026723FA04F386
:1032D00003F0FF0001F0FF01FDE80445A0EB010051
:1032E000704724BAB4FA84F424F0070426FA04F1EF
:1032F000DDE9026722FA04F202F0FF0001F0FF01AB
:10330000FDE80445A0EB0100704714F0030F3CD129
:1033100010F0030428D150F8082B51F8083B82FA2A
:103320004CF582EA0305A5FA8CF55DB950F8042C3A
:1033300051F8043C82FA4CF582EA0305A5FA8CF5B3
:10334000002DE8D02DBAB5FA85F424F0070423FA4D
:1033500004F122FA04F202F0FF0001F0FF01FDE89F
:103360000445A0EB010070474FEAC40420F00300BD
:1033700050F8082B21F0030151F8083B0CFA04F433
:1033800062EA040263EA0403C9E710F003041AD0F6
:10339000A1EB040120F00300E40750F8042B06D051
:1033A0000FD28B785FFAA2F4E41A06D12BB1CB7856
:1033B0005FFAB2F4E41A00D11BB920465DF8104B55
:1033C000704701F1040150F8042BCC0721F00301F0
:1033D00051F8043B48D824D222F07F4482FA4CF5BD
:1033E00094EA1325A5FA8CF50AD165B951F8043B86
:1033F00084EA0204B4EB036F0ED150F8042BEBE720
:103400004FEA132355E035F07F454DD10878FDE8AC
:103410000445C0F1000070474FEA126203F0FF0359
:1034200047E002EA1C4482FA4CF594EA1345A5FAF7
:103430008CF50AD165B951F8043B84EA0204B4EB77
:10344000034F0CD150F8042BEBE74FEA134330E065
:1034500015EA1C4528D10B884FEA124229E04FEAB1
:10346000124203EA1C4324E002F0FF0482FA4CF506
:1034700094EA1365A5FA8CF50AD165B951F8043BB5
:1034800084EA0204B4EB032F09D150F8042BEBE7D4
:103490004FEA13630DE015F0FF0F05D10B684FEAFB
:1034A000122223F07F4304E04FF00000FDE80445C2
:1034B000704712BA1BBA82FA4CF482EA0304A4FAE7
:1034C0008CF5B5FA85F402FA04F203FA04F34FEA34
:1034D0001260FDE80445A0EB136070470000000097
:1034E00000000000000000000000000000000000DC
:1034F00000000000000000000000000000000000CC
:1035000090F800F06DE9024520F007016FF0000C23
:1035100010F0070491F820F040F049804FF00004CB
:103520006FF00700D1E9002391F840F000F10800A6
:1035300082FA4CF2A4FA8CF283FA4CF3A2FA8CF3DE
:103540004BBBD1E9022382FA4CF200F10800A4FA45
:103550008CF283FA4CF3A2FA8CF3E3B9D1E9042399
:1035600082FA4CF200F10800A4FA8CF283FA4CF3D0
:10357000A2FA8CF37BB9D1E9062301F1200182FA8A
:103580004CF200F10800A4FA8CF283FA4CF3A2FA90
:103590008CF3002BC6D0002A04BF04301A4612BA9E
:1035A000B2FA82F2FDE8024500EBD2007047D1E9A1
:1035B000002304F00305C4F100004FEAC50514F030
:1035C000040F91F840F00CFA05F562EA05021CBF01
:1035D00063EA050362464FF00004A9E7F8B50D461B
:1035E0001446064610B1836B002B43D0B4F90C206F
:1035F000A369A36091B208071BD52369CBB1EDB2D3
:1036000089042F4622D522686169D31A994229DD9F
:103610000133A168501C0139A160206015706269F6
:103620009A422AD0A389DB0701D50A2D25D0384636
:10363000F8BD21463046FEF79BF820BBB4F90C20BC
:10364000236991B2EDB289042F46DCD4616E42F455
:10365000005221F40051A281226861666169D31A87
:103660009942D5DC21463046FEF71CFA58B922684B
:103670000123CEE7FEF71CFBB8E721463046FEF7F4
:1036800011FA0028D3D04FF0FF37D0E7024B0A469B
:1036900001461868FFF7A2BF08000020F0B50B4CE8
:1036A00085B00646D4F8E0401F4621B1A047431C30
:1036B00006D005B0F0BD0A4601A9A047431CF8D1C9
:1036C00000228A233A60336005B0F0BD3804002040
:1036D00070B50F4B0F4CD3F8E060246884B01546EA
:1036E00040B10A462B4601462046B047431C08D04D
:1036F00004B070BD02462B4601A92046B047431CCA
:10370000F6D100228A232A60236004B070BD00BF76
:10371000380400200800002010B4034CD4F8E04026
:10372000A44610BC604700BF3804002049B1FF2AFE
:1037300002D80A70012070478A2303604FF0FF30DF
:1037400070470846704700BF70B50D46084C1146DB
:1037500006461A46284600232360FCF7CDFD431C8D
:1037600000D070BD2368002BFBD0336070BD00BF5C
:10377000140A002038B5074C00230546084623608C
:1037800000F022FA431C00D038BD2368002BFBD088
:103790002B6038BD140A002070B539B105460C46BF
:1037A00008B1836B83B3B4F90C3013B900263046EB
:1037B00070BD21462846FEF7CFF8E36A064633B1CE
:1037C000E169284698470028B8BF4FF0FF36A38923
:1037D0001B0620D4216B41B104F14003994202D071
:1037E0002846FEF75BFB00232363616C21B128466A
:1037F000FEF754FB00236364FEF75EFA0023A38107
:10380000FEF75CFA304670BDFEF752FAB4F90C30A0
:10381000002BCBD0CDE721692846FEF73FFBD9E747
:10382000024B01461868FFF7B7BF00BF0800002031
:1038300038B50B46074C0546114618460023236051
:1038400000F0CAF9431C00D038BD2368002BFBD020
:103850002B6038BD140A002038B5074C00230546FC
:103860000846236000F0C0F9431C00D038BD23682F
:10387000002BFBD02B6038BD140A002070B50D461C
:10388000084C114606461A4628460023236000F0DD
:10389000B3F9431C00D070BD2368002BFBD033600C
:1038A00070BD00BF140A002070B50D46084C1146CB
:1038B00006461A4628460023236000F0A5F9431C5B
:1038C00000D070BD2368002BFBD0336070BD00BFFB
:1038D000140A002053B94AB9002908BF00281CBFA8
:1038E0004FF0FF314FF0FF3000F06CB9ADF1080C34
:1038F0006DE904CE00F006F8DDF804E0DDE902230E
:1039000004B070472DE9F047089E0D4604468E46E8
:10391000002B40F082808A42174646D9B2FA82F2E2
:103920004AB1C2F1200105FA02F320FA01F19740F1
:1039300041EA030E94404FEA1748230CBEFBF8FC03
:10394000B9B208FB1CEE43EA0E430CFB01F09842AF
:103950000AD9FB180CF1FF3580F01681984240F22D
:103960001381ACF1020C3B441B1AA4B2B3FBF8F078
:1039700008FB103344EA034400FB01F1A14209D9DA
:103980003C1900F1FF3380F00181A14240F2FE803A
:1039900002383C44641A40EA0C4000211EB1D44075
:1039A0000023C6E90043BDE8F08702B9FFDEB2FAA2
:1039B00082F2002A4FD1CB1B4FEA174E1FFA87F82D
:1039C0000121B3FBFEFC250C0EFB1C3345EA03452D
:1039D00008FB0CF3AB4207D97D190CF1FF3002D282
:1039E000AB4200F2E7808446ED1AA3B2B5FBFEF0CD
:1039F0000EFB105543EA054408FB00F8A04507D923
:103A00003C1900F1FF3302D2A04500F2D7801846DE
:103A1000A4EB080440EA0C40C0E78B4208D9002E12
:103A200000F0AF800021C6E900050846BDE8F08738
:103A3000B3FA83F100294BD1AB4202D3824200F2A8
:103A4000B780841A65EB030301209E46002EAAD09E
:103A5000C6E9004EA7E7C2F1200C01FA02F3974035
:103A600020FA0CF04FEA174E21FA0CFC1843BCFB6D
:103A7000FEF1050C0EFB11CC1FFA87F845EA0C4548
:103A800001FB08F3AB4204FA02F409D97D1901F1F4
:103A9000FF3C80F08B80AB4240F2888002393D448D
:103AA000EB1A85B2B3FBFEF00EFB103345EA03457B
:103AB00000FB08F3AB4207D97D1900F1FF3C71D23E
:103AC000AB426FD902383D44EB1A40EA014178E736
:103AD000C1F1200C8B4022FA0CF71F4320FA0CF4A2
:103AE00005FA01F34FEA174E25FA0CF51C43230C97
:103AF000B5FBFEF91FFA87F80EFB195543EA054599
:103B000009FB08FAAA4502FA01F200FA01F308D902
:103B10007D1909F1FF3047D2AA4545D9A9F102091B
:103B20003D44A5EB0A05A4B2B5FBFEF00EFB105513
:103B300044EA054400FB08F8A04507D93C1900F108
:103B4000FF352DD2A0452BD902383C4440EA09402C
:103B5000A4EB0804A0FB02894C45C6464D4619D388
:103B600016D05EB1B3EB0E0264EB050404FA0CFC54
:103B7000CA404CEA0202CC40C6E900240021BDE85C
:103B8000F087314630460EE7AC46EDE6184601E7D1
:103B90004345E6D2B8EB020E69EB07050138E0E7D2
:103BA0002846D3E760468FE78146BAE7614677E764
:103BB00008464BE7ACF1020C3D4415E702383C44A3
:103BC00026E700BF704700BF024B58221A604FF033
:103BD000FF307047140A0020024B58221A604FF041
:103BE000FF307047140A0020024B58221A60002050
:103BF000704700BF140A0020024B58221A604FF091
:103C0000FF307047140A0020024B58221A604FF010
:103C1000FF307047140A0020044A05491368002B3E
:103C200008BF0B461844106018467047100A002061
:103C3000180A0020FEE700BFF8B500BFF8BC08BCBA
:103C40009E467047F8B500BFF8BC08BC9E4670475A
:103C5000546865206176657261676520677261648A
:103C60006520696E2054544B256420776173206968
:103C70006E20256420616E642025643A2025630A45
:103C80000D000000100000202020202020202020F7
:103C900020202020202020203030303030303030A4
:103CA00030303030303030303031323334353637F8
:103CB0003839414243444546000000003031323338
:103CC0003435363738396162636465660000000058
:103CD000286E756C6C29000043000000504F53495A
:103CE000580000002E00000000202020202020206E
:103CF000202028282828282020202020202020209C
:103D000020202020202020202088101010101010AB
:103D100010101010101010101004040404040404F7
:103D20000404041010101010101041414141414191
:103D30000101010101010101010101010101010173
:103D40000101010110101010101042424242424283
:103D50000202020202020202020202020202020243
:103D600002020202101010102000000000000000EB
:103D70000000000000000000000000000000000043
:103D80000000000000000000000000000000000033
:103D90000000000000000000000000000000000023
:103DA0000000000000000000000000000000000013
:103DB0000000000000000000000000000000000003
:103DC00000000000000000000000000000000000F3
:103DD00000000000000000000000000000000000E3
:103DE00000000000000000000000000000000000D3
:083DF00098C4FF7F01000000F0
:103DF8000090D00300000000100000200000000028
:103E080000000000FC02002064030020CC03002016
:103E1800000000000000000000000000000000009A
:103E2800000000000000000000000000000000008A
:103E3800000000000000000000000000000000007A
:103E4800000000000000000000000000000000006A
:103E5800000000000000000000000000000000005A
:103E6800000000000000000000000000000000004A
:103E7800000000000000000000000000000000003A
:103E8800000000000000000000000000000000002A
:103E9800000000000000000000000000000000001A
:103EA8000000000000000000010000000000000009
:103EB8000E33CDAB34126DE6ECDE05000B000000CE
:103EC80000000000000000000000000000000000EA
:103ED80000000000000000000000000000000000DA
:103EE80000000000000000000000000000000000CA
:103EF80000000000000000000000000000000000BA
:104228000000000000000000430000000000000043
:104238000000000000000000000000000000000076
:104248000000000000000000430000000000000023
:104258000000000000000000000000000000000056
:104268000000000000000000430000000000000003
:104278000000000000000000000000000000000036
:1042880000000000000000004300000000000000E3
:104298000000000000000000000000000000000016
:1042A80000000000000000004300000000000000C3
:1042B80000000000000000000000000000000000F6
:1042C80000000000000000004300000000000000A3
:1042D80000000000000000000000000000000000D6
:1042E8000000000000000000430000000000000083
:1042F80000000000000000000000000000000000B6
:1043080000000000000000002D370000FD2A00001A
:1043180000000000E83C0000E43C0000B83C00005D
:10432800B83C0000B83C0000B83C0000B83C0000B5
:10433800B83C0000B83C0000B83C0000B83C0000A5
:10434800FFFFFFFFFFFFFFFFFFFFFFFFFFFF000073
:1043580001004153434949000000000000000000EB
:104368000000000000000000000000000000000045
:1043780000004153434949000000000000000000CC
:104388000000000000000000000000000000000025
:10439800000000000000000000000000A40500204C
:1043A800A4050020AC050020AC050020B4050020C1
:1043B800B4050020BC050020BC050020C405002071
:1043C800C4050020CC050020CC050020D405002021
:1043D800D4050020DC050020DC050020E4050020D1
:1043E800E4050020EC050020EC050020F405002081
:1043F800F4050020FC050020FC0500200406002030
:10440800040600200C0600200C06002014060020DC
:10441800140600201C0600201C060020240600208C
:10442800240600202C0600202C060020340600203C
:10443800340600203C0600203C06002044060020EC
:10444800440600204C0600204C060020540600209C
:10445800540600205C0600205C060020640600204C
:10446800640600206C0600206C06002074060020FC
:10447800740600207C0600207C06002084060020AC
:10448800840600208C0600208C060020940600205C
:10449800940600209C0600209C060020A40600200C
:1044A800A4060020AC060020AC060020B4060020BC
:1044B800B4060020BC060020BC060020C40600206C
:1044C800C4060020CC060020CC060020D40600201C
:1044D800D4060020DC060020DC060020E4060020CC
:1044E800E4060020EC060020EC060020F40600207C
:1044F800F4060020FC060020FC060020040700202B
:10450800040700200C0700200C07002014070020D7
:10451800140700201C0700201C0700202407002087
:10452800240700202C0700202C0700203407002037
:10453800340700203C0700203C07002044070020E7
:10454800440700204C0700204C0700205407002097
:10455800540700205C0700205C0700206407002047
:10456800640700206C0700206C07002074070020F7
:10457800740700207C0700207C07002084070020A7
:10458800840700208C0700208C0700209407002057
:10459800940700209C0700209C070020A407002007
:1045A800A4070020AC070020AC070020B4070020B7
:1045B800B4070020BC070020BC070020C407002067
:1045C800C4070020CC070020CC070020D407002017
:1045D800D4070020DC070020DC070020E4070020C7
:1045E800E4070020EC070020EC070020F407002077
:1045F800F4070020FC070020FC0700200408002026
:10460800040800200C0800200C08002014080020D2
:10461800140800201C0800201C0800202408002082
:10462800240800202C0800202C0800203408002032
:10463800340800203C0800203C08002044080020E2
:10464800440800204C0800204C0800205408002092
:10465800540800205C0800205C0800206408002042
:10466800640800206C0800206C08002074080020F2
:10467800740800207C0800207C08002084080020A2
:10468800840800208C0800208C0800209408002052
:10469800940800209C0800209C080020A408002002
:1046A800A4080020AC080020AC080020B4080020B2
:1046B800B4080020BC080020BC080020C408002062
:1046C800C4080020CC080020CC080020D408002012
:1046D800D4080020DC080020DC080020E4080020C2
:1046E800E4080020EC080020EC080020F408002072
:1046F800F4080020FC080020FC0800200409002021
:10470800040900200C0900200C09002014090020CD
:10471800140900201C0900201C090020240900207D
:10472800240900202C0900202C090020340900202D
:10473800340900203C0900203C09002044090020DD
:10474800440900204C0900204C090020540900208D
:10475800540900205C0900205C090020640900203D
:10476800640900206C0900206C09002074090020ED
:10477800740900207C0900207C090020840900209D
:10478800840900208C0900208C090020940900204D
:10479800940900209C0900209C090020FFFFFFFFCE
:1047A80000000200451900006902000041020000F3
:04000003000008A948
:00000001FF
